MUSIKAE AMOREBIE2020020001              2020023140001231          3FAZURMENDI EGUIZABAL ARANTZA                                 14552757    J108ES1 F                                                                         108ES01821211000001663718            108                  ESPAÑA                                                                                                                                                                                                                                                              1                                                                                                                        48340                                                                                                                                                                                                                     0000000027,19  Azurmendi                                                              Eguizabal                                                              Arantza                                                                                                                                                                                                                                                                                                                                                            000000001RB           000002719PPF2020021310220   20200229                                                                                                                                   000002719F                                                  F                                                  
MUSIKAE AMOREBIE2020020002              2020023140001231          3FPEREZ URQUIJO ANA ISABEL                                    15368979    B108ES1 F                                                                         108ES20950023911689133950            108                  ESPAÑA                                                                                                                                                                                                                                                              1                                                                                                                        48340                                                                                                                                                                                                                     0000000072,80  Salazar                                                                Perez                                                                  Kerman                                                                                                                                                                                                                                                                                                                                                             000000002RB           000007280PPF2020021310220   20200229                                                                                                                                   000007280F                                                  F                                                  
MUSIKAE AMOREBIE2020020003              2020023140001231          3FGARAY ARANGUENA LEONOR AMADA                                78862248    D108ES1 F                                                                         108ES00420078107810058711            108                  ESPAÑA                                                                                                                                                                                                                                                              1                                                                                                                        48340                                                                                                                                                                                                                     0000000027,19  Llona                                                                  Garai                                                                  Aiora                                                                                                                                                                                                                                                                                                                                                              000000003RB           000002719PPF2020021310220   20200229                                                                                                                                   000002719F                                                  F                                                  
MUSIKAE AMOREBIE2020020004              2020023140001231          3FCAZORLA BOLAÑOS CELIA                                       30601107    K108ES1 F                                                                         108ES20950023901701673853            108                  ESPAÑA                                                                                                                                                                                                                                                              1                                                                                                                        48340                                                                                                                                                                                                                     0000000021,75  Agirre                                                                 Cazorla                                                                Endika                                                                                                                                                                                                                                                                                                                                                             000000004RB           000002175PPF2020021310220   20200229                                                                                                                                   000002175F                                                  F                                                  
MUSIKAE AMOREBIE2020020005              2020023140001231          3FCAZORLA BOLAÑOS CELIA                                       30601107    K108ES1 F                                                                         108ES20950023901701673853            108                  ESPAÑA                                                                                                                                                                                                                                                              1                                                                                                                        48340                                                                                                                                                                                                                     0000000021,75  Agirre                                                                 Cazorla                                                                Aitor                                                                                                                                                                                                                                                                                                                                                              000000005RB           000002175PPF2020021310220   20200229                                                                                                                                   000002175F                                                  F                                                  
MUSIKAE AMOREBIE2020020006              2020023140001231          3FGEREDIAGA ERTZILLA IDOIA                                    30628373    D108ES1 F                                                                         108ES30350015015001434009            108                  ESPAÑA                                                                                                                                                                                                                                                              1                                                                                                                        48340                                                                                                                                                                                                                     0000000007,24  Argatxa                                                                Gerediaga                                                              Itsaso                                                                                                                                                                                                                                                                                                                                                             000000006RB           000000724PPF2020021310220   20200229                                                                                                                                   000000724F                                                  F                                                  
MUSIKAE AMOREBIE2020020007              2020023140001231          3FGEREDIAGA ERTZILLA IDOIA                                    30628373    D108ES1 F                                                                         108ES30350015015001434009            108                  ESPAÑA                                                                                                                                                                                                                                                              1                                                                                                                        48340                                                                                                                                                                                                                     0000000027,19  Argatxa                                                                Gerediaga                                                              Leire                                                                                                                                                                                                                                                                                                                                                              000000007RB           000002719PPF2020021310220   20200229                                                                                                                                   000002719F                                                  F                                                  
MUSIKAE AMOREBIE2020020008              2020023140001231          3FARRIETA BEREZIARTUA JON IMANOL JOSEBA                       30599937    R108ES1 F                                                                         108ES20950141901706515147            108                  ESPAÑA                                                                                                                                                                                                                                                              1                                                                                                                        48340                                                                                                                                                                                                                     0000000009,06  Arrieta                                                                Renard                                                                 Irati                                                                                                                                                                                                                                                                                                                                                              000000008RB           000000906PPF2020021310220   20200229                                                                                                                                   000000906F                                                  F                                                  
MUSIKAE AMOREBIE2020020009              2020023140001231          3FSANZ GOMEZ MAITE                                            11913869    F108ES1 F                                                                         108ES21002420010018408694            108                  ESPAÑA                                                                                                                                                                                                                                                              1                                                                                                                        48340                                                                                                                                                                                                                     0000000037,71  Castañeda                                                              Sanz                                                                   Jon                                                                                                                                                                                                                                                                                                                                                                000000009RB           000003771PPF2020021310220   20200229                                                                                                                                   000003771F                                                  F                                                  
MUSIKAE AMOREBIE2020020010              2020023140001231          3FISIDORO PEREZ AGUSTINA                                      14563284    Y108ES1 F                                                                         108ES20950023100842875753            108                  ESPAÑA                                                                                                                                                                                                                                                              1                                                                                                                        48340                                                                                                                                                                                                                     0000000009,06  Martinez                                                               Isidoro                                                                Jon                                                                                                                                                                                                                                                                                                                                                                000000010RB           000000906PPF2020021310220   20200229                                                                                                                                   000000906F                                                  F                                                  
MUSIKAE AMOREBIE2020020011              2020023140001231          3FETXEBARRIA ETXEITA IGNACIO JAVIER                           14946003    M108ES1 F                                                                         108ES20950023901105690856            108                  ESPAÑA                                                                                                                                                                                                                                                              1                                                                                                                        48340                                                                                                                                                                                                                     0000000019,04  Etxebarria                                                             Susaeta                                                                Xabier                                                                                                                                                                                                                                                                                                                                                             000000011RB           000001904PPF2020021310220   20200229                                                                                                                                   000001904F                                                  F                                                  
MUSIKAE AMOREBIE2020020012              2020023140001231          3FETXEBARRIA ETXEITA IGNACIO JAVIER                           14946003    M108ES1 F                                                                         108ES20950023901105690856            108                  ESPAÑA                                                                                                                                                                                                                                                              1                                                                                                                        48340                                                                                                                                                                                                                     0000000032,99  Etxebarria                                                             Susaeta                                                                Iñigo                                                                                                                                                                                                                                                                                                                                                              000000012RB           000003299PPF2020021310220   20200229                                                                                                                                   000003299F                                                  F                                                  
MUSIKAE AMOREBIE2020020013              2020023140001231          3FLEIZEA ORTEGA JOSU                                          14259513    L108ES1 F                                                                         108ES20950212100896934704            108                  ESPAÑA                                                                                                                                                                                                                                                              1                                                                                                                        48340                                                                                                                                                                                                                     0000000007,25  Leizea                                                                 Ortega                                                                 Josu                                                                                                                                                                                                                                                                                                                                                               000000013RB           000000725PPF2020021310220   20200229                                                                                                                                   000000725F                                                  F                                                  
MUSIKAE AMOREBIE2020020014              2020023140001231          3FZUAZO URIARTE IDOIA                                         78867812    F108ES1 F                                                                         108ES20950023911749257750            108                  ESPAÑA                                                                                                                                                                                                                                                              1                                                                                                                        48340                                                                                                                                                                                                                     0000000027,19  Zapirain                                                               Zuazo                                                                  Paule                                                                                                                                                                                                                                                                                                                                                              000000014RB           000002719PPF2020021310220   20200229                                                                                                                                   000002719F                                                  F                                                  
MUSIKAE AMOREBIE2020020015              2020023140001231          3FARRIEN ARGATXA MIRARI                                       30560347    V108ES1 F                                                                         108ES20950023911394115950            108                  ESPAÑA                                                                                                                                                                                                                                                              1                                                                                                                        48340                                                                                                                                                                                                                     0000000027,19  Gallastegi                                                             Arrien                                                                 Aitor                                                                                                                                                                                                                                                                                                                                                              000000015RB           000002719PPF2020021310220   20200229                                                                                                                                   000002719F                                                  F                                                  
MUSIKAE AMOREBIE2020020016              2020023140001231          3FRAZKIN MARDARAZ ALBERTO                                     14952328    M108ES1 F                                                                         108ES20542110915562996491            108                  ESPAÑA                                                                                                                                                                                                                                                              1                                                                                                                        48340                                                                                                                                                                                                                     0000000027,19  Razkin                                                                 Mardaraz                                                               Alberto                                                                                                                                                                                                                                                                                                                                                            000000016RB           000002719PPF2020021310220   20200229                                                                                                                                   000002719F                                                  F                                                  
MUSIKAE AMOREBIE2020020017              2020023140001231          3FAMILIBIA GARAI AGATE                                        72319875    D108ES1 F                                                                         108ES20950023820093564250            108                  ESPAÑA                                                                                                                                                                                                                                                              1                                                                                                                        48340                                                                                                                                                                                                                     0000000027,19  Amilibia                                                               Garai                                                                  Agate                                                                                                                                                                                                                                                                                                                                                              000000017RB           000002719PPF2020021310220   20200229                                                                                                                                   000002719F                                                  F                                                  
MUSIKAE AMOREBIE2020020018              2020023140001231          3FMANZANARES ELVIRA JULIAN                                    14928099    H108ES1 F                                                                         108ES00420078042126586719            108                  ESPAÑA                                                                                                                                                                                                                                                              1                                                                                                                        48340                                                                                                                                                                                                                     0000000021,75  Manzanares                                                             Clemente                                                               Maria                                                                                                                                                                                                                                                                                                                                                              000000018RB           000002175PPF2020021310220   20200229                                                                                                                                   000002175F                                                  F                                                  
MUSIKAE AMOREBIE2020020019              2020023140001231          3FETXEBERRIA LASARTE AINTZANE                                 72437970    E108ES1 F                                                                         108ES21002420010054324992            108                  ESPAÑA                                                                                                                                                                                                                                                              1                                                                                                                        48340                                                                                                                                                                                                                     0000000047,14  Zeberio                                                                Etxeberria                                                             Joanes                                                                                                                                                                                                                                                                                                                                                             000000019RB           000004714PPF2020021310220   20200229                                                                                                                                   000004714F                                                  F                                                  
MUSIKAE AMOREBIE2020020020              2020023140001231          3FZARANDONA AZARLOZA BEGOÑA                                   78864988    N108ES1 F                                                                         108ES20950023901106321151            108                  ESPAÑA                                                                                                                                                                                                                                                              1                                                                                                                        48340                                                                                                                                                                                                                     0000000037,71  Etxebarria                                                             Zarandona                                                              Jon                                                                                                                                                                                                                                                                                                                                                                000000020RB           000003771PPF2020021310220   20200229                                                                                                                                   000003771F                                                  F                                                  
MUSIKAE AMOREBIE2020020021              2020023140001231          3FRAZKIN MARDARAZ MARIA JESUS                                 72170593    C108ES1 F                                                                         108ES30840023630002994259            108                  ESPAÑA                                                                                                                                                                                                                                                              1                                                                                                                        48340                                                                                                                                                                                                                     0000000047,14  Isasi                                                                  Razkin                                                                 Josu                                                                                                                                                                                                                                                                                                                                                               000000021RB           000004714PPF2020021310220   20200229                                                                                                                                   000004714F                                                  F                                                  
MUSIKAE AMOREBIE2020020022              2020023140001231          3FMANDALUNIZ BASAGOITI IBON                                   30623232    C108ES1 F                                                                         108ES20950023902425232857            108                  ESPAÑA                                                                                                                                                                                                                                                              1                                                                                                                        48340                                                                                                                                                                                                                     0000000032,99  Mandaluniz                                                             Basagoiti                                                              Ibon                                                                                                                                                                                                                                                                                                                                                               000000022RB           000003299PPF2020021310220   20200229                                                                                                                                   000003299F                                                  F                                                  
MUSIKAE AMOREBIE2020020023              2020023140001231          3FBARRENETXEA GARIZURIETA MIKEL                               30655984    C108ES1 F                                                                         108ES01380014002065380926            108                  ESPAÑA                                                                                                                                                                                                                                                              1                                                                                                                        48340                                                                                                                                                                                                                     0000000027,19  Barrenetxea                                                            Garizurieta                                                            Mikel                                                                                                                                                                                                                                                                                                                                                              000000023RB           000002719PPF2020021310220   20200229                                                                                                                                   000002719F                                                  F                                                  
MUSIKAE AMOREBIE2020020024              2020023140001231          3FETXEBARRIA AZKETA JANIRE                                    78889407    M108ES1 F                                                                         108ES20950141910772033440            108                  ESPAÑA                                                                                                                                                                                                                                                              1                                                                                                                        48340                                                                                                                                                                                                                     0000000024,38  Etxebarria                                                             Azketa                                                                 Janire                                                                                                                                                                                                                                                                                                                                                             000000024RB           000002438PPF2020021310220   20200229                                                                                                                                   000002438F                                                  F                                                  
MUSIKAE AMOREBIE2020020025              2020023140001231          3F DE PRADO ATXUTEGI MIRIAM                                   78915618    L108ES1 F                                                                         108ES20950073911561068810            108                  ESPAÑA                                                                                                                                                                                                                                                              1                                                                                                                        48340                                                                                                                                                                                                                     0000000007,25  de Prado                                                               Atxutegi                                                               Miriam                                                                                                                                                                                                                                                                                                                                                             000000025RB           000000725PPF2020021310220   20200229                                                                                                                                   000000725F                                                  F                                                  
MUSIKAE AMOREBIE2020020026              2020023140001231          3FETXEBARRIA ETXEITA IGNACIO JAVIER                           14946003    M108ES1 F                                                                         108ES20950023901105690856            108                  ESPAÑA                                                                                                                                                                                                                                                              1                                                                                                                        48340                                                                                                                                                                                                                     0000000033,00  Etxebarria                                                             Etxeita                                                                Ignacio Javier                                                                                                                                                                                                                                                                                                                                                     000000026RB           000003300PPF2020021310220   20200229                                                                                                                                   000003300F                                                  F                                                  
MUSIKAE AMOREBIE2020020027              2020023140001231          3FLARREA AGIRRE EDURNE                                        30582538    J108ES1 F                                                                         108ES21002420010041388796            108                  ESPAÑA                                                                                                                                                                                                                                                              1                                                                                                                        48340                                                                                                                                                                                                                     0000000027,19  Arrieta                                                                Larrea                                                                 Amaia                                                                                                                                                                                                                                                                                                                                                              000000027RB           000002719PPF2020021310220   20200229                                                                                                                                   000002719F                                                  F                                                  
MUSIKAE AMOREBIE2020020028              2020023140001231          3FZALDIBAR ZABALA IRATXE                                      30655043    E108ES1 F                                                                         108ES21001759020014573306            108                  ESPAÑA                                                                                                                                                                                                                                                              1                                                                                                                        48340                                                                                                                                                                                                                     0000000009,06  Artabe                                                                 Gonzalez                                                               Elaia                                                                                                                                                                                                                                                                                                                                                              000000028RB           000000906PPF2020021310220   20200229                                                                                                                                   000000906F                                                  F                                                  
MUSIKAE AMOREBIE2020020029              2020023140001231          3FCURIEL ADRADOS MARIA PALOMA                                 15385344    T108ES1 F                                                                         108ES00496032279509038422            108                  ESPAÑA                                                                                                                                                                                                                                                              1                                                                                                                        48340                                                                                                                                                                                                                     0000000072,80  Perez                                                                  Curiel                                                                 Pablo                                                                                                                                                                                                                                                                                                                                                              000000029RB           000007280PPF2020021310220   20200229                                                                                                                                   000007280F                                                  F                                                  
MUSIKAE AMOREBIE2020020030              2020023140001231          3FOLALDE VICANDI IBON                                         30647752    E108ES1 F                                                                         108ES21002420020008074591            108                  ESPAÑA                                                                                                                                                                                                                                                              1                                                                                                                        48340                                                                                                                                                                                                                     0000000047,14  Olalde                                                                 Soloeta                                                                Mikel                                                                                                                                                                                                                                                                                                                                                              000000030RB           000004714PPF2020021310220   20200229                                                                                                                                   000004714F                                                  F                                                  
MUSIKAE AMOREBIE2020020031              2020023140001231          3FMENA ZARANDONA MARIA YOLANDA                                30620380    C108ES1 F                                                                         108ES20950049911330482470            108                  ESPAÑA                                                                                                                                                                                                                                                              1                                                                                                                        48340                                                                                                                                                                                                                     0000000042,33  Zugazaga                                                               Mena                                                                   June                                                                                                                                                                                                                                                                                                                                                               000000031RB           000004233PPF2020021310220   20200229                                                                                                                                   000004233F                                                  F                                                  
MUSIKAE AMOREBIE2020020032              2020023140001231          3FLARREA ARZA IÑAKI                                           14596576    V108ES1 F                                                                         108ES30350015015107880202            108                  ESPAÑA                                                                                                                                                                                                                                                              1                                                                                                                        48340                                                                                                                                                                                                                     0000000037,71  Larrea                                                                 Undabeitia                                                             Markel                                                                                                                                                                                                                                                                                                                                                             000000032RB           000003771PPF2020021310220   20200229                                                                                                                                   000003771F                                                  F                                                  
MUSIKAE AMOREBIE2020020033              2020023140001231          3FIGLESIAS SANTIAGO JUAN ANTONIO                              11913841    W108ES1 F                                                                         108ES00420078021206830512            108                  ESPAÑA                                                                                                                                                                                                                                                              1                                                                                                                        48340                                                                                                                                                                                                                     0000000037,71  Iglesias                                                               Santiago                                                               Juan Antonio                                                                                                                                                                                                                                                                                                                                                       000000033RB           000003771PPF2020021310220   20200229                                                                                                                                   000003771F                                                  F                                                  
MUSIKAE AMOREBIE2020020034              2020023140001231          3FSAGASTIGORDIA UGALDE MAITE                                  30653699    N108ES1 F                                                                         108ES00490199269144243705            108                  ESPAÑA                                                                                                                                                                                                                                                              1                                                                                                                        48340                                                                                                                                                                                                                     0000000047,14  Urtubi                                                                 Sagastigordia                                                          Nerea                                                                                                                                                                                                                                                                                                                                                              000000034RB           000004714PPF2020021310220   20200229                                                                                                                                   000004714F                                                  F                                                  
MUSIKAE AMOREBIE2020020035              2020023140001231          3FJAUREGI LETE JOSÉ MARIA                                     30622476    T108ES1 F                                                                         108ES30350015015109165401            108                  ESPAÑA                                                                                                                                                                                                                                                              1                                                                                                                        48340                                                                                                                                                                                                                     0000000047,14  Jauregi                                                                Beldarrain                                                             Gaizka                                                                                                                                                                                                                                                                                                                                                             000000035RB           000004714PPF2020021310220   20200229                                                                                                                                   000004714F                                                  F                                                  
MUSIKAE AMOREBIE2020020036              2020023140001231          3FZEARRETA GARAI IKER                                         30645266    C108ES1 F                                                                         108ES30350015015002307805            108                  ESPAÑA                                                                                                                                                                                                                                                              1                                                                                                                        48340                                                                                                                                                                                                                     0000000027,19  Zearreta                                                               Garai                                                                  Iker                                                                                                                                                                                                                                                                                                                                                               000000036RB           000002719PPF2020021310220   20200229                                                                                                                                   000002719F                                                  F                                                  
MUSIKAE AMOREBIE2020020037              2020023140001231          3FARMADA URIBARRI NEREA                                       72592264    D108ES1 F                                                                         108ES30350015015002886607            108                  ESPAÑA                                                                                                                                                                                                                                                              1                                                                                                                        48340                                                                                                                                                                                                                     0000000009,06  Armada                                                                 Uribarri                                                               Nerea                                                                                                                                                                                                                                                                                                                                                              000000037RB           000000906PPF2020021310220   20200229                                                                                                                                   000000906F                                                  F                                                  
MUSIKAE AMOREBIE2020020038              2020023140001231          3FPRADO MARTIN JUAN MANUEL                                    30606072    H108ES1 F                                                                         108ES20950023910171362850            108                  ESPAÑA                                                                                                                                                                                                                                                              1                                                                                                                        48340                                                                                                                                                                                                                     0000000007,25  Prado                                                                  Martin                                                                 Juan Manuel                                                                                                                                                                                                                                                                                                                                                        000000038RB           000000725PPF2020021310220   20200229                                                                                                                                   000000725F                                                  F                                                  
MUSIKAE AMOREBIE2020020040              2020023140001231          3FCALVETE ZUMALDE ANGEL                                       24402161    N108ES1 F                                                                         108ES01821211001003143919            108                  ESPAÑA                                                                                                                                                                                                                                                              1                                                                                                                        48340                                                                                                                                                                                                                     0000000047,14  Calvete                                                                Andres                                                                 Ainhoa                                                                                                                                                                                                                                                                                                                                                             000000039RB           000004714PPF2020021310220   20200229                                                                                                                                   000004714F                                                  F                                                  
MUSIKAE AMOREBIE2020020041              2020023140001231          3FFERNÁNDEZ RODRÍGUEZ JOSÉ MANUEL                             14591776    R108ES1 F                                                                         108ES01821211020159170410            108                  ESPAÑA                                                                                                                                                                                                                                                              1                                                                                                                        48340                                                                                                                                                                                                                     0000000047,14  Fernandez                                                              Odriozola                                                              Jon                                                                                                                                                                                                                                                                                                                                                                000000040RB           000004714PPF2020021310220   20200229                                                                                                                                   000004714F                                                  F                                                  
MUSIKAE AMOREBIE2020020042              2020023140001231          3FGONZÁLEZ TEJERO JOSE ANGEL                                  11907860    R108ES1 F                                                                         108ES20950323910263414260            108                  ESPAÑA                                                                                                                                                                                                                                                              1                                                                                                                        48340                                                                                                                                                                                                                     0000000047,05  Gonzalez                                                               Velasco                                                                Irene                                                                                                                                                                                                                                                                                                                                                              000000041RB           000004705PPF2020021310220   20200229                                                                                                                                   000004705F                                                  F                                                  
MUSIKAE AMOREBIE2020020043              2020023140001231          3FLARREA GONZÁLEZ NEREA                                       29030463    R108ES1 F                                                                         108ES30350022022112347040            108                  ESPAÑA                                                                                                                                                                                                                                                              1                                                                                                                        48340                                                                                                                                                                                                                     0000000067,63  Azkuna                                                                 Larrea                                                                 Malen                                                                                                                                                                                                                                                                                                                                                              000000042RB           000006763PPF2020021310220   20200229                                                                                                                                   000006763F                                                  F                                                  
MUSIKAE AMOREBIE2020020044              2020023140001231          3FAGUIRREGOICOA MARQUINA SORAYA                               78866507    J108ES1 F                                                                         108ES20950023383036708558            108                  ESPAÑA                                                                                                                                                                                                                                                              1                                                                                                                        48340                                                                                                                                                                                                                     0000000047,14  Sarmiento                                                              Agirregoikoa                                                           Sergi                                                                                                                                                                                                                                                                                                                                                              000000043RB           000004714PPF2020021310220   20200229                                                                                                                                   000004714F                                                  F                                                  
MUSIKAE AMOREBIE2020020046              2020023140001231          3FCURIEL ADRADOS MARIA PALOMA                                 15385344    T108ES1 F                                                                         108ES00496032279509038422            108                  ESPAÑA                                                                                                                                                                                                                                                              1                                                                                                                        48340                                                                                                                                                                                                                     0000000037,71  Perez                                                                  Curiel                                                                 Jon                                                                                                                                                                                                                                                                                                                                                                000000044RB           000003771PPF2020021310220   20200229                                                                                                                                   000003771F                                                  F                                                  
MUSIKAE AMOREBIE2020020047              2020023140001231          3FDE LA HOZ MESA MARÍA JOSEFINA                               30644492    M108ES1 F                                                                         108ES30350015015109441503            108                  ESPAÑA                                                                                                                                                                                                                                                              1                                                                                                                        48340                                                                                                                                                                                                                     0000000047,14  Trujillo                                                               De la Hoz                                                              Xabier                                                                                                                                                                                                                                                                                                                                                             000000045RB           000004714PPF2020021310220   20200229                                                                                                                                   000004714F                                                  F                                                  
MUSIKAE AMOREBIE2020020048              2020023140001231          3FDAÑOBEITIA OLAETA MARIA LUISA                               30609953    N108ES1 F                                                                         108ES30350015015113047007            108                  ESPAÑA                                                                                                                                                                                                                                                              1                                                                                                                        48340                                                                                                                                                                                                                     0000000052,92  Vallejo                                                                Dañobeitia                                                             Laida                                                                                                                                                                                                                                                                                                                                                              000000046RB           000005292PPF2020021310220   20200229                                                                                                                                   000005292F                                                  F                                                  
MUSIKAE AMOREBIE2020020049              2020023140001231          3FALDAZABAL ETXEBARRIA MARIA                                  30650484    V108ES1 F                                                                         108ES01821211020009266611            108                  ESPAÑA                                                                                                                                                                                                                                                              1                                                                                                                        48340                                                                                                                                                                                                                     0000000081,70  Perez                                                                  Aldazabal                                                              Maren                                                                                                                                                                                                                                                                                                                                                              000000047RB           000008170PPF2020021310220   20200229                                                                                                                                   000008170F                                                  F                                                  
MUSIKAE AMOREBIE2020020050              2020023140001231          3FLARREA ARZA IÑAKI                                           14596576    V108ES1 F                                                                         108ES30350015015107880202            108                  ESPAÑA                                                                                                                                                                                                                                                              1                                                                                                                        48340                                                                                                                                                                                                                     0000000042,33  Larrea                                                                 Undabeitia                                                             Olatz                                                                                                                                                                                                                                                                                                                                                              000000048RB           000004233PPF2020021310220   20200229                                                                                                                                   000004233F                                                  F                                                  
MUSIKAE AMOREBIE2020020051              2020023140001231          3FMARQUINEZ IDIAQUEZ ROSARIO                                  16259092    R108ES1 F                                                                         108ES30350080080111706091            108                  ESPAÑA                                                                                                                                                                                                                                                              1                                                                                                                        48340                                                                                                                                                                                                                     0000000047,14  Lauzirika                                                              Markinez                                                               Nerea                                                                                                                                                                                                                                                                                                                                                              000000049RB           000004714PPF2020021310220   20200229                                                                                                                                   000004714F                                                  F                                                  
MUSIKAE AMOREBIE2020020052              2020023140001231          3FSAGASTI ETXEANDIA MARIA FRANCISCA                           14603865    S108ES1 F                                                                         108ES20950023910116258850            108                  ESPAÑA                                                                                                                                                                                                                                                              1                                                                                                                        48340                                                                                                                                                                                                                     0000000037,71  Azkarraga                                                              Sagasti                                                                Lexuri                                                                                                                                                                                                                                                                                                                                                             000000050RB           000003771PPF2020021310220   20200229                                                                                                                                   000003771F                                                  F                                                  
MUSIKAE AMOREBIE2020020053              2020023140001231          3FLANGARA LÁZARO OLATZ                                        30664950    Q108ES1 F                                                                         108ES30350015015108902808            108                  ESPAÑA                                                                                                                                                                                                                                                              1                                                                                                                        48340                                                                                                                                                                                                                     0000000058,81  Herrero                                                                Langara                                                                Oier                                                                                                                                                                                                                                                                                                                                                               000000051RB           000005881PPF2020021310220   20200229                                                                                                                                   000005881F                                                  F                                                  
MUSIKAE AMOREBIE2020020054              2020023140001231          3FGOITIANDIA GORROCHATEGUI FRANCISCO JAVIER                   14860230    E108ES1 F                                                                         108ES30350015015102313404            108                  ESPAÑA                                                                                                                                                                                                                                                              1                                                                                                                        48340                                                                                                                                                                                                                     0000000047,14  Goitiandia                                                             Gorrotxategi                                                           Xabier                                                                                                                                                                                                                                                                                                                                                             000000052RB           000004714PPF2020021310220   20200229                                                                                                                                   000004714F                                                  F                                                  
MUSIKAE AMOREBIE2020020055              2020023140001231          3FARTEAGA FUENTES RAMON                                       36936279    G108ES1 F                                                                         108ES01280303010000606262            108                  ESPAÑA                                                                                                                                                                                                                                                              1                                                                                                                        48340                                                                                                                                                                                                                     0000000071,05  Arteaga                                                                Fuentes                                                                Ramon                                                                                                                                                                                                                                                                                                                                                              000000053RB           000007105PPF2020021310220   20200229                                                                                                                                   000007105F                                                  F                                                  
MUSIKAE AMOREBIE2020020056              2020023140001231          3FGARCIA TRABUDUA URTZA                                       30576868    R108ES1 F                                                                         108ES20950023910701821950            108                  ESPAÑA                                                                                                                                                                                                                                                              1                                                                                                                        48340                                                                                                                                                                                                                     0000000009,06  Friess                                                                 Garcia                                                                 Lorea                                                                                                                                                                                                                                                                                                                                                              000000054RB           000000906PPF2020021310220   20200229                                                                                                                                   000000906F                                                  F                                                  
MUSIKAE AMOREBIE2020020057              2020023140001231          3FZAMALLOA OLEA AMAIA                                         30668105    C108ES1 F                                                                         108ES21004979220001905382            108                  ESPAÑA                                                                                                                                                                                                                                                              1                                                                                                                        48340                                                                                                                                                                                                                     0000000047,05  Ramos                                                                  Zamalloa                                                               Irati                                                                                                                                                                                                                                                                                                                                                              000000055RB           000004705PPF2020021310220   20200229                                                                                                                                   000004705F                                                  F                                                  
MUSIKAE AMOREBIE2020020058              2020023140001231          3FORUE IZA JOSE RAMON                                         14533969    Q108ES1 F                                                                         108ES30350015015105907005            108                  ESPAÑA                                                                                                                                                                                                                                                              1                                                                                                                        48340                                                                                                                                                                                                                     0000000027,19  Orue                                                                   Iza                                                                    Jose Ramon                                                                                                                                                                                                                                                                                                                                                         000000056RB           000002719PPF2020021310220   20200229                                                                                                                                   000002719F                                                  F                                                  
MUSIKAE AMOREBIE2020020059              2020023140001231          3FESPIÑA MARTIN MARIA PRESENTACION                            30629684    D108ES1 F                                                                         108ES20950007902447456891            108                  ESPAÑA                                                                                                                                                                                                                                                              1                                                                                                                        48340                                                                                                                                                                                                                     0000000082,14  Etxebarria                                                             Espiña                                                                 Unai                                                                                                                                                                                                                                                                                                                                                               000000057RB           000008214PPF2020021310220   20200229                                                                                                                                   000008214F                                                  F                                                  
MUSIKAE AMOREBIE2020020060              2020023140001231          3FZUGAZAGA LARRINAGA ENERITZ                                  30667590    B108ES1 F                                                                         108ES21000732010122016922            108                  ESPAÑA                                                                                                                                                                                                                                                              1                                                                                                                        48340                                                                                                                                                                                                                     0000000047,05  Lopezortega                                                            Zuazaga                                                                Oier                                                                                                                                                                                                                                                                                                                                                               000000058RB           000004705PPF2020021310220   20200229                                                                                                                                   000004705F                                                  F                                                  
MUSIKAE AMOREBIE2020020061              2020023140001231          3FIZA ASPIAZU ELISABET                                        30621991    K108ES1 F                                                                         108ES20950361910351797660            108                  ESPAÑA                                                                                                                                                                                                                                                              1                                                                                                                        48340                                                                                                                                                                                                                     0000000047,14  Garai                                                                  Iza                                                                    Eider                                                                                                                                                                                                                                                                                                                                                              000000059RB           000004714PPF2020021310220   20200229                                                                                                                                   000004714F                                                  F                                                  
